[2022-03-28T14:10:50+04:30] Current block number of bitcoin is 729368 and db update 
[2022-03-28T14:10:53+04:30] New trx of address bc1qcrudsryq8gcuspdz3ddvzytt8vch6l4ugfzp5y / trxId ba57b2c16d600963b35390172b707a50ab1db1212342e60884f49b4a1ad70aa5 in network bitcoin Founded. 
[2022-03-28T14:10:53+04:30] [DEBUG][WEBHOOK] trxId=ba57b2c16d600963b35390172b707a50ab1db1212342e60884f49b4a1ad70aa5 type=new transaction detected 
[2022-03-28T14:10:53+04:30] [DEBUG][WEBHOOK] payload {"address":"bc1qcrudsryq8gcuspdz3ddvzytt8vch6l4ugfzp5y","balance_change":570,"block_id":-1,"confirm":false,"confirmCount":0,"hash":"ba57b2c16d600963b35390172b707a50ab1db1212342e60884f49b4a1ad70aa5","network":"bitcoin","time":"2022-03-28 09:39:56","trxId":"ba57b2c16d600963b35390172b707a50ab1db1212342e60884f49b4a1ad70aa5","type":"new transaction detected"} 
[2022-03-28T14:10:53+04:30] [DEBUG][WEBHOOK] webhook sent by payload {"address":"bc1qcrudsryq8gcuspdz3ddvzytt8vch6l4ugfzp5y","balance_change":570,"block_id":-1,"confirm":false,"confirmCount":0,"hash":"ba57b2c16d600963b35390172b707a50ab1db1212342e60884f49b4a1ad70aa5","network":"bitcoin","time":"2022-03-28 09:39:56","trxId":"ba57b2c16d600963b35390172b707a50ab1db1212342e60884f49b4a1ad70aa5","type":"new transaction detected"} 
[2022-03-28T14:10:53+04:30] Message sent as "new transaction detected" status to "http://me:3000"

========= client ========




{"name":"echo-server","hostname":"a2125095dca3","pid":1,"level":30,"host":{"hostname":"me","ip":"::ffff:172.17.0.1","ips":[]},"http":{"method":"POST","baseUrl":"","originalUrl":"/","protocol":"http"},"request":{"params":{},"query":{},"cookies":{},"body":{"address":"bc1qcrudsryq8gcuspdz3ddvzytt8vch6l4ugfzp5y","balance_change":570,"block_id":-1,"confirm":false,"confirmCount":0,"hash":"ba57b2c16d600963b35390172b707a50ab1db1212342e60884f49b4a1ad70aa5","network":"bitcoin","time":"2022-03-28 09:39:56","trxId":"ba57b2c16d600963b35390172b707a50ab1db1212342e60884f49b4a1ad70aa5","type":"new transaction detected"},"headers":{"host":"me:3000","user-agent":"Go-http-client/1.1","content-length":"356","content-type":"application/json","accept-encoding":"gzip"}},"environment":{"PATH":"/usr/local/sbin:/usr/local/bin:/usr/sbin:/usr/bin:/sbin:/bin","HOSTNAME":"a2125095dca3","TERM":"xterm","NODE_VERSION":"14.17.1","YARN_VERSION":"1.22.5","HOME":"/root"},"msg":"Mon, 28 Mar 2022 09:40:53 GMT | [POST] - http://me:3000/","time":"2022-03-28T09:40:53.399Z","v":0}


{"name":"echo-server","hostname":"a2125095dca3","pid":1,"level":30,"host":{"hostname":"me","ip":"::ffff:172.17.0.1","ips":[]},"http":{"method":"POST","baseUrl":"","originalUrl":"/","protocol":"http"},"request":{"params":{},"query":{},"cookies":{},"body":{"address":"bc1qcrudsryq8gcuspdz3ddvzytt8vch6l4ugfzp5y","blockNumber":729368,"confirm":true,"confirmCount":1,"createdAt":"2022-03-28T14:11:56+04:30","fee":828,"hash":"ba57b2c16d600963b35390172b707a50ab1db1212342e60884f49b4a1ad70aa5","hex":"020000000001029d4c72c814a4ff17a034ce1e1df213d9df1cfe674ead02ce09454213c33611f30000000000000000009d4c72c814a4ff17a034ce1e1df213d9df1cfe674ead02ce09454213c33611f3010000000000000000022604000000000000160014c0f8d80c803a31c805a28b5ac1116b3b317d7ebc72de020000000000160014362b78ce7c22fd9c7078b9e4cfbf57276ac245430247304402206b354623aaf05eef9615ad90ff5f443aea7451b2ac39c36ac579ecf8cfb7cc1702207d1e7ccf08b01d1af6f9d57d659d8a2362215c2d613567ddba6e7d7cea0f17800121037560f7ccab1bdb306dc128e102d9512e89fe6642a14c69b35ec085da4de87e9a02483045022100833264457ab0c2df39a58560299781b9863770d059d3e7ea4e4f24979eaa5ab90220393817647cd6559e9c5102919b26caec6e495fd9c616ba511786637ac6b2d89c012103bc2f3ecf22f839f086e9e5ea69c79743d035ce0e049509eb34248d9abef7a6af00000000","index":552,"inputs":[{"coin":{"address":"bc1qcrudsryq8gcuspdz3ddvzytt8vch6l4ugfzp5y","coinbase":false,"height":729365,"script":"0014c0f8d80c803a31c805a28b5ac1116b3b317d7ebc","value":492,"version":2},"prevout":{"hash":"f31136c313424509ce02ad4e67fe1cdfd913f21d1ece34a017ffa414c8724c9d","index":0},"script":"","sequence":0},{"coin":{"address":"bc1qh0g50jg957wry5p2ygax4p7m2ccqtw67xmws9x","coinbase":false,"height":729365,"script":"0014bbd147c905a79c32502a223a6a87db563005bb5e","value":189416,"version":2},"prevout":{"hash":"f31136c313424509ce02ad4e67fe1cdfd913f21d1ece34a017ffa414c8724c9d","index":1},"script":"","sequence":0}],"locktime":0,"outputs":[{"address":"bc1qcrudsryq8gcuspdz3ddvzytt8vch6l4ugfzp5y","script":"0014c0f8d80c803a31c805a28b5ac1116b3b317d7ebc","value":1062},{"address":"bc1qxc4h3nnuyt7ecurch8jvl06hya4vy32r39vfr3","script":"0014362b78ce7c22fd9c7078b9e4cfbf57276ac24543","value":188018}],"size":371,"time":1648460427,"trxId":"ba57b2c16d600963b35390172b707a50ab1db1212342e60884f49b4a1ad70aa5","type":"confirm transactions","version":2,"vsize":209,"weight":833,"witnessHash":"36bf8047dece0c31183fcbae58c48fda69e39d80b97944383b15042c23e6df46"},"headers":{"host":"me:3000","user-agent":"Go-http-client/1.1","content-length":"2141","content-type":"application/json","accept-encoding":"gzip"}},"environment":{"PATH":"/usr/local/sbin:/usr/local/bin:/usr/sbin:/usr/bin:/sbin:/bin","HOSTNAME":"a2125095dca3","TERM":"xterm","NODE_VERSION":"14.17.1","YARN_VERSION":"1.22.5","HOME":"/root"},"msg":"Mon, 28 Mar 2022 09:41:56 GMT | [POST] - http://me:3000/","time":"2022-03-28T09:41:56.029Z","v":0}




=======elk========

{"time":"2022-03-28T08:55:47.245Z","message":"Incoming massage payload is incomplete, some fields didn't attached.","data":{"confirm":true,"confirmCount":0,"createdAt":"2022-03-28T13:25:47+04:30","hash":"a04cf8af374e0796375dba887dd783828a6e25cb77da4cb20d7013fe8f1ce17c","hex":"0200000000010396ff6fad65398ed0b689f542323ab9d080cf93427f222289cc3502a0aad806f60000000000000000000f0806dcdc1edd3a4807c466c5e3f94d58aed8e2a8c52eaa4f6b030de827e0e70000000000000000000f0806dcdc1edd3a4807c466c5e3f94d58aed8e2a8c52eaa4f6b030de827e0e701000000000000000002ec01000000000000160014c0f8d80c803a31c805a28b5ac1116b3b317d7ebce8e3020000000000160014bbd147c905a79c32502a223a6a87db563005bb5e02473044022026c3a745189ec36576030d2b32bf22422bd5f01fd02c788d823e95d209cb73fd02205551b40f408a7d058ed3c4393b09001baebe5fa318234afeeb67c43c20021a870121037560f7ccab1bdb306dc128e102d9512e89fe6642a14c69b35ec085da4de87e9a0248304502210094f74da74de3eb90b8283fe4a5efd24c701b3c933c2f143922d5b5bd486a913402200b64a96c9d1925e3609ec66f2933975212b8b7329078010b768812783b763a470121037560f7ccab1bdb306dc128e102d9512e89fe6642a14c69b35ec085da4de87e9a02483045022100b0f580c9ebac0c06685dd21e02ca015aea43d032dcf7f6498c579dd7cc30195a02204a8367ab6fd4b4b74d0c513921401747c8226c5a71d18c387e31e23c5f29ce570121036b47191c657594a34a936ba630fb1836e3ecc53e1456be3dd386b6ea45aa44e800000000","locktime":0,"size":520,"trxId":"a04cf8af374e0796375dba887dd783828a6e25cb77da4cb20d7013fe8f1ce17c","txid":"f31136c313424509ce02ad4e67fe1cdfd913f21d1ece34a017ffa414c8724c9d","type":"confirm transactions","version":2,"vin":[{"scriptSig":{"asm":"","hex":""},"sequence":0,"txid":"f606d8aaa00235cc8922227f4293cf80d0b93a3242f589b6d08e3965ad6fff96","txinwitness":["3044022026c3a745189ec36576030d2b32bf22422bd5f01fd02c788d823e95d209cb73fd02205551b40f408a7d058ed3c4393b09001baebe5fa318234afeeb67c43c20021a8701","037560f7ccab1bdb306dc128e102d9512e89fe6642a14c69b35ec085da4de87e9a"],"vout":0},{"scriptSig":{"asm":"","hex":""},"sequence":0,"txid":"e7e027e80d036b4faa2ec5a8e2d8ae584df9e3c566c407483add1edcdc06080f","txinwitness":["304502210094f74da74de3eb90b8283fe4a5efd24c701b3c933c2f143922d5b5bd486a913402200b64a96c9d1925e3609ec66f2933975212b8b7329078010b768812783b763a4701","037560f7ccab1bdb306dc128e102d9512e89fe6642a14c69b35ec085da4de87e9a"],"vout":0},{"scriptSig":{"asm":"","hex":""},"sequence":0,"txid":"e7e027e80d036b4faa2ec5a8e2d8ae584df9e3c566c407483add1edcdc06080f","txinwitness":["3045022100b0f580c9ebac0c06685dd21e02ca015aea43d032dcf7f6498c579dd7cc30195a02204a8367ab6fd4b4b74d0c513921401747c8226c5a71d18c387e31e23c5f29ce5701","036b47191c657594a34a936ba630fb1836e3ecc53e1456be3dd386b6ea45aa44e8"],"vout":1}],"vout":[{"n":0,"scriptPubKey":{"address":"bc1qcrudsryq8gcuspdz3ddvzytt8vch6l4ugfzp5y","asm":"0 c0f8d80c803a31c805a28b5ac1116b3b317d7ebc","hex":"0014c0f8d80c803a31c805a28b5ac1116b3b317d7ebc","type":"witness_v0_keyhash"},"value":0.00000492},{"n":1,"scriptPubKey":{"address":"bc1qh0g50jg957wry5p2ygax4p7m2ccqtw67xmws9x","asm":"0 bbd147c905a79c32502a223a6a87db563005bb5e","hex":"0014bbd147c905a79c32502a223a6a87db563005bb5e","type":"witness_v0_keyhash"},"value":0.00189416}],"vsize":277,"weight":1105},"isAlert":true}
